:1000000052C099C06BC06AC069C068C067C066C092
:1000100065C064C063C062C061C060C05FC00501EC
:100020000906A101050719E029E715002501750159
:1000300095088102950175082565190029658100DB
:10004000C009022200010100801909040000010317
:10005000000000092101010001222300070581039E
:1000600008000A1201100100000008424231E100BC
:10007000010102000114034D006F0072007300655E
:100080000020006B006500790018036D00690074A2
:1000900000780065006C0061002E0063006F006D49
:1000A00000040309040011241FBECFE5D2E0DEBF27
:1000B000CDBF10E0A0E6B0E0E2EFFCE002C00590AA
:1000C0000D92A236B107D9F720E0A2E6B0E001C058
:1000D0001D92A43CB207E1F732D209C691CFA82FF6
:1000E000B92F80E090E041E050EA609530E009C02F
:1000F0002D9182279795879510F084279527305E5C
:10010000C8F36F5FA8F30895EADF8D939D93089578
:10011000A6E088279927AA9569F00197E1F3B0999D
:10012000FCCFB09BFECF81E09927A6B3019611F0DA
:10013000A570D9F70895CF93CFB7CF93C395B09B50
:10014000E9F7B09B0BC0B09B09C0B09B07C0B09B48
:1001500005C0B09B03C0B09B01C0D5C00F92DF9318
:10016000C091A700DD27C255DF4F012EB09B03C011
:10017000DF910F90E6CF2F930F931F934F932FEFA5
:100180004F6F06B300FB20F95F933F9350E03BE0D5
:1001900065C016B30126502950FDC89556B30127F6
:1001A00000FB25F92F7306B3B1F05027102710FB81
:1001B00026F906B22230F0F000C016B3012700FB8A
:1001C00027F90126502906B22430E8F54F77206838
:1001D00016B30000F6CF50274F7D206206B2102FD5
:1001E000000000C006B300265029102710FB26F996
:1001F00006B2E2CF4F7B06B3206400C0DACF0126FF
:100200005029157006B269F14E7F2160012F16B397
:1002100028C0002650294D7F06B22260102F29C029
:10022000012650294B7F06B22460012F2DC016B342
:1002300001265029477F2860000006B22EC04F7E5D
:1002400006B3206130C0422706B3499300265029E7
:10025000102706B24FEF10FB20F9297F16B379F271
:10026000157059F10126502906B2012700FB21F92A
:10027000237F06B371F2002650293150D0F006B228
:10028000102710FB22F9277E16B351F201265029C0
:10029000012700FB06B223F92F7C49F2000006B3C8
:1002A000102710FB24F90026502906B22F7939F2C5
:1002B00070CF10E41ABF002719C03B503195C31B03
:1002C000D04010E41ABF0881033C09F10B34F9F067
:1002D0002091A5001981110F1213EDCF4A81441FFF
:1002E000093651F10D3211F0013E29F70093AC00AF
:1002F0003F915F914F911F910F912F91DF910F903F
:10030000CAB7C6FD1BCFCF91CFBFCF911895209113
:10031000AC00222369F31091AA00112379F534303F
:100320007AF13093AA002093A6001091A7003BE039
:10033000311B3093A70024C00091AA000130F4F4CF
:100340000AE54F7049F43091610034FD1AC0009302
:100350006100CEE8D0E019C03091990034FD11C0A1
:1003600000939900CAE9D0E010C0052710E000C052
:1003700021C0052710E0C89508BB14C03AE501C0AC
:1003800032ED032EC0E0D0E032E017B31560C09A22
:1003900008B317BB55E020E84FEF20FF052708BB47
:1003A000279517951C3F28F700004552B0F720FF0E
:1003B0000527279508BB17951C3FB8F629913A9554
:1003C00061F70A7F1091AB00110F08BBC250D040FB
:1003D00011F01093A50010E41ABF016017B31A7F43
:1003E000402F4A7F54E05A95F1F708BB17BB48BB32
:1003F0007FCFE0917600F0917700309731F08081E7
:10040000882331F09091880004C090E080E001C022
:1004100090E0EAE8F0E090838183089520917600EF
:10042000309177002858304049F427E830E0309385
:100430007700209376009FEF90938700E0917600FD
:10044000F0917700DF0111971C923297F0937700BB
:10045000E093760080830895FC018AE890E0909311
:10046000A9008093A800908190769032B9F48181A0
:10047000813019F4BEDF82E00895823041F489E8CA
:1004800090E09093A9008093A80081E008958A30BD
:1004900039F483818093890080E0089580E0089595
:1004A00080E00895DF92EF92FF920F931F93CF9316
:1004B000DF93F8946894EE24E3F8F12CD12C10E843
:1004C000012F0D0D01BF24DEEC01C43389E0D807F4
:1004D0000CF4D02E169581E0E81AF10889F78FEF19
:1004E0008D0D81BF81B70D2D10E00F5F1F4F90E084
:1004F00008171907B4F00CDE845399409C0122F4CC
:1005000022273327281B390B2C173D0714F4D1B6AB
:10051000E90191B79F5F91BF21B730E00217130740
:1005200054F7D1BE789461B780E090E0D2D3DF91E8
:10053000CF911F910F91FF90EF90DF90089580E091
:1005400090E0BFD38F3F09F081BFB89A84E1E2EB1E
:10055000F1EF3197F1F700C000008150C1F7B89872
:10056000B99AC49A9EE088E10FB6F894A89581BD27
:100570000FBE91BD82E18ABD13BE80E489BD8BE0D0
:1005800080BF10928800E6E7F0E0129280E0E63645
:10059000F807D9F786E690E09093650080936400B1
:1005A00083D37894C9E9D0E06894DD24D2F806E6D4
:1005B00010E00F2EF5E6EF2EF0E0FF2EF02D689400
:1005C000992495F8BB24BA940F2EFDE2AF2EF02D9E
:1005D0000F2EF3E0CF2EF02DA89532D2988194FF04
:1005E0001CC08091760090917700892BB1F001DFDB
:1005F00062E08AE890E002D2E0917600F091770024
:10060000CF010196909377008093760081818F3F90
:1006100021F4109277001092760008B602FEDCCF2B
:10062000D8BEB49916C0C3BE8091630091E0980F04
:1006300090936300863331F4A09263008AE2EEDE89
:10064000B0926200809163008D3230F610926200A9
:10065000C3CF80916300882399F113BEE0916400B9
:10066000F091650080E0E637F80739F1809163008A
:100670008D3288F0108280E0E636F807F1F01292B1
:1006800080E0E636F807D9F7C70101969093650038
:100690008093640012C0893048F4CF010196909392
:1006A0006500809364008EE2808307C0CF010196CD
:1006B0009093650080936400A082109263008CCFB9
:1006C00013BE9091620081E0890F809362009F3F8A
:1006D00019F4B092620080CF8A3009F084C1109280
:1006E0008800F80180818E3209F0B6C081818E3297
:1006F00009F05EC082818E3269F583818E32A9F461
:1007000084818E3231F48581811157C182E286DE87
:1007100054C18D3239F4F801858181114EC181E2D5
:100720007DDE4BC18BE07ADE48C18D3281F4F80169
:1007300084818E3209F441C18D3231F48581811179
:100740003CC1892D6BDE39C189E168DE36C186E1A5
:1007500065DE33C18D3249F5F80183818E3231F483
:10076000848181112AC189E059DE27C18D32D1F4FB
:10077000F80184818D3231F4858181111EC18FE1B0
:100780004DDE1BC18E3209F018C1F80185818E3211
:1007900009F013C18681811110C19092880088E30D
:1007A0003DDE0BC188E13ADE08C18CE037DE05C1D1
:1007B0008D3209F04EC0F80182818E3229F5838195
:1007C0008E3231F484818111F8C08FE027DEF5C0CC
:1007D0008D32B9F4F80184818E3209F0EEC0858142
:1007E0008D3231F486818111E8C087E317DEE5C0E0
:1007F000F80186818111E1C0909288008EE20EDEC0
:10080000DCC085E10BDED9C08D3201F5F8018381B2
:100810008E3231F484818111D0C083E1FFDDCDC0FF
:100820008D3289F4F8018481811103C08DE0F6DDF9
:10083000C4C08D3209F0C1C0F80185818111BDC0ED
:100840008EE1ECDDBAC08AE1E9DDB7C08D2DE6DDD1
:10085000B4C088E0E3DDB1C08D3209F0AEC0F8016C
:1008600081818E3209F04BC082818E3269F583819D
:100870008E32A9F484818E3231F4858181119DC03C
:1008800083E2CCDD9AC08D3239F4F8018581811183
:1008900094C08EE2C3DD91C085E0C0DD8EC08D3294
:1008A00081F4F80184818E3231F48581811185C013
:1008B00088E3B4DD82C08D3209F47FC08BE1AEDD08
:1008C0007CC087E0ABDD79C08D32B1F4F801838163
:1008D0008E3231F48481811170C086E09FDD6DC05D
:1008E0008D3239F4F8018481811167C08CE196DD85
:1008F00064C08EE093DD61C081E190DD5EC08D3229
:1009000009F059C0F80182818E3259F583818E3207
:10091000E1F48481811103C08DE180DD4EC08E320F
:1009200039F4F8018581811148C084E277DD45C042
:100930008D3209F042C0F80185818D32F1F5868152
:1009400081113BC086E36ADD38C08D3239F4F8018D
:100950008481811132C084E161DD2FC08AE05EDDD7
:100960002CC08D3229F5F80183818E3249F48481BF
:100970008E3219F58581811120C085E24FDD1DC0C1
:100980008D3299F4F80184818D3231F485818111A1
:1009900014C087E243DD11C08E3279F4F8018581FD
:1009A00081110BC086E23ADD08C082E137DD05C067
:1009B00080E134DD02C087E131DDE0916400F09137
:1009C0006500108280E0E636F80709F405CE129241
:1009D00080E0E636F807D9F7C701019690936500E5
:1009E00080936400F9CD8D3209F0F6CD80916300DB
:1009F0008D3208F0F1CD8CE211DDEECDCF93C62F14
:100A00002091990024FF07C0E9E9F0E0318128E84E
:100A10002327218303C02AE520939900E82FF92F8B
:100A2000ABE9B0E08C2F91919D938150E1F76C2F51
:100A30008BE990E069DBCC5FC0939900CF9108957A
:100A4000CF93DF938091AA0083500AF4B4C0209121
:100A5000A7009091A6009D3209F0ABC0883009F044
:100A6000A8C0CCE0D0E0C21BD109C255DF4F83EC57
:100A700080938E008AE58093610010928D008881BA
:100A8000807619F0CE01E8DC8BC09A811092970035
:100A90008981811106C01092980027E930E082E038
:100AA0007BC0853031F49093AB0027E930E080E0E3
:100AB00073C0863009F050C08B81813041F483E6E9
:100AC00090E09093A9008093A80082E141C0823019
:100AD00041F481E490E09093A9008093A80082E221
:100AE00037C08330F1F4911108C081EA90E090930F
:100AF000A9008093A80084E02BC0913041F489E8DC
:100B000090E09093A9008093A80088E121C09230E2
:100B1000E1F485E790E09093A9008093A80084E138
:100B200017C0813241F483E590E09093A90080934F
:100B3000A80089E00DC0823251F48EE190E09093DC
:100B4000A9008093A80083E203C080E001C080E098
:100B500090E490938D0024C0883099F0893031F46E
:100B60009093AD0027E930E080E016C08A3069F04C
:100B70008B3079F48BE480939A0027E930E080E0B1
:100B80000BC02DEA30E081E007C027E930E081E0CA
:100B900003C027E930E080E03093A9002093A8004B
:100BA0009F81911104C09E81981708F4892F80932A
:100BB00060001092AA008091610084FF4BC0809178
:100BC00060008F3F09F446C0C82F893008F0C8E0A4
:100BD0008C1B80936000EEE8F0E0908188E8892724
:100BE0008083CC2309F457C02091A8003091A9003C
:100BF00080918D0086FF10C0AFE8B0E0F9018C2F26
:100C000094919D9331968150D9F78FEF8C0F90E09E
:100C10000196280F391F0EC0D901EFE8F0E08C2FA4
:100C20009D9191938150E1F78FEF8C0F90E00196A9
:100C3000280F391F3093A9002093A8006C2F8FE84C
:100C400090E062DACC5FCC3018F48FEF80936000D4
:100C5000C093610086B38570A9F493E186B3857073
:100C600091F49150D9F71092AB001092A5008091A9
:100C70008C00813019F415C015DC01C0C1E0C093AF
:100C80008C000FC094E1C1E09111C0E080918C0014
:100C9000C813F2CF06C06C2F8FE890E035DACC5F36
:100CA000D4CFDF91CF91089585B7836085BF8BB78F
:100CB00080648BBFE9E9F0E08BE481838AE580837F
:100CC0000895E199FECF9FBB8EBBE09A99278DB323
:100CD0000895262FE199FECF1CBA9FBB8EBB2DBB7A
:100CE0000FB6F894E29AE19A0FBE01960895F8942F
:020CF000FFCF34
:020CF200FF5AA7
:00000001FF
